:020000040800F2
:1000000040090020B10100087D16000865150008B0
:100010003916000865030008611C00080000000094
:10002000000000000000000000000000831600082F
:10003000690300080000000081160008851600080A
:10004000CB010008CB010008CB010008CB01000860
:10005000CB010008CB010008CB010008CB01000850
:10006000CB010008CB010008CB010008CB01000840
:10007000CB010008CB010008CB010008CB01000830
:10008000CB010008CB010008CB01000800000000F4
:10009000000000000000000000000000CB0100088C
:1000A000CB010008CB010008CB010008CB01000800
:1000B000CB010008CB010008CB010008CB010008F0
:1000C000CB010008CB010008CB010008CB010008E0
:1000D000CB010008511C0008CB0100080000000003
:1000E000CB010008CB010008CB0100080000000094
:1000F000000000000000000000000000CB0100082C
:1001000000000000CB010008CB010008CB01000873
:1001100000000000000000000000000000000000DF
:10012000CB010008CB010008CB010008CB0100087F
:10013000CB010008000000000000000000000000EB
:10014000000000000000000000000000CB010008DB
:10015000CB010008CB010008CB010008CB0100084F
:10016000CB010008CB0100080000000000000000E7
:10017000000000000000000000000000000000007F
:1001800000000000CB01000800000000000000009B
:10019000CB010008CB010008DFF810D000F0D0F848
:1001A000004800479D220008AFF30080400900206E
:1001B0000648804706480047FEE7FEE7FEE7FEE701
:1001C000FEE7FEE7FEE7FEE7FEE7FEE74117000871
:1001D000990100082DE9F05F0546002092469B46F4
:1001E00088460646814640241BE02846414647464D
:1001F000224600F095F853465A46C01A914110D352
:1002000011461846224600F07CF82D1A67EB0108CB
:100210004F4622460120002100F073F817EB000939
:100220004E41201EA4F10104DFDC484631462A4637
:100230004346BDE8F09FD2B201E000F8012B491E11
:10024000FBD270470022F6E710B513460A46044673
:100250001946FFF7F0FF204610BD421E12F8013F7D
:10026000002BFBD111F8013B02F8013B002BF9D127
:10027000704730B505462A460B4612F8010B13F8B5
:10028000014B08B1A042F8D01CB1002802D06D1C6F
:10029000F1E7284630BD10B5044604E00B7800F8BD
:1002A000013B03B1491C521EF8D2204610BD421C2E
:1002B00010F8011B0029FBD1801A704730B50446A5
:1002C0000020034600E05B1C934203D2E05CCD5C5F
:1002D000401BF8D030BD30B50B460146002020222F
:1002E000012409E021FA02F59D4205D303FA02F543
:1002F000491B04FA02F52844151EA2F10102F1DCA3
:1003000030BD202A04DB203A00FA02F100207047B9
:100310009140C2F1200320FA03F319439040704743
:10032000202A04DB203A21FA02F00021704721FA4A
:1003300002F3D040C2F120029140084319467047B1
:10034000064C074D06E0E06840F0010394E8070022
:1003500098471034AC42F6D3FFF722FFB4250008CB
:10036000D425000800BFFEE77047000070B59AB0C2
:10037000044622460AA101A801F074FC01A8FFF777
:1003800096FF86B2FF23324601A9064801F080F8A5
:10039000054615B101201AB070BD0020FBE7000032
:1003A00025730000F802002072B600BFFEE770B5AA
:1003B0000446A56D00F05AF9064694F83500022867
:1003C00008D08020606500BF002084F8340000BFA2
:1003D000012070BD2068006820F0160021680860C8
:1003E0002068406920F0800021684861206C08B9CD
:1003F000A06C28B12068006820F00800216808601F
:100400002068006820F001002168086010E000F01A
:100410002DF9801B05280BD920206065032084F866
:10042000350000BF002084F8340000BF0320D0E76F
:100430002068006800F001000028E8D194F85C1002
:100440003F208840A860012084F8350000BF0020CC
:1004500084F8340000BF00BFBBE7014691F83500C7
:10046000022803D08020486501207047052081F8CC
:1004700035000868006820F001000A68106000205C
:10048000F3E70000F8B502460B46002500240020E3
:100490000021C6E0012606FA01F51E6806EA0504F9
:1004A000AC4274D11E7906F00306012E04D01E79E9
:1004B00006F00306022E13D190684F000326BE40BB
:1004C000B0434F00DE68BE40304390605068012664
:1004D0008E40B0431E79C6F300168E403043506004
:1004E0001E7906F00306032E09D0D0684F000326BC
:1004F000BE40B0434F009E68BE403043D0601E797E
:1005000006F00306022E13D1CF0802F1200656F89A
:1005100027004E07F70E0F26BE40B0434F07FF0ED1
:100520001E69BE403043CF0802F1200646F827007E
:1005300010684F000326BE40B0431E7906F0030644
:100540004F00BE40304310605E6806F44036002E17
:1005500066D000BF00260096344E366846F48046CA
:10056000324F3E603E46366806F48046009600BF35
:1005700000BF2F4E8F0856F827008E07370F0F2623
:10058000BE40B0432B4EB24202D1002615E047E0F8
:10059000294EB24201D101260FE0284EB24201D1CC
:1005A00002260AE0264EB24201D1032605E0254E7E
:1005B000B24201D1042600E007268F073F0FBE405C
:1005C00030431B4E8F0846F827001F4E3068A0436B
:1005D0005E6806F4803606B120431B4E3060361D3F
:1005E0003068A0435E6806F4003606B12043164E1C
:1005F000361D3060361D3068A0435E6806F48016F4
:1006000006B12043104E08363060361D3068A043D6
:100610005E6806F4001606B120430B4E0C363060BF
:10062000491C1029FFF436AFF8BD000044380240E1
:100630000838014000000240000402400008024067
:10064000000C024000100240003C014010B542691D
:1006500021EA020302EA010443EA0443836110BD74
:100660000AB1816101E00B048361704701480068B1
:10067000704700008C000020034800680349097897
:1006800008440149086070478C0000209400002055
:1006900010B50D48006840F400700B49086008462A
:1006A000006840F4806008600846006840F480708C
:1006B0000860032000F0A2F80F2000F007F800F017
:1006C0002BF8002010BD0000003C024070B504462D
:1006D0000E4800784FF47A71B1FBF0F00C490968CC
:1006E000B1FBF0F5284600F02BFC08B1012070BDED
:1006F000102C07D200222146501E00F041F8054878
:10070000046001E00120F2E70020F0E794000020FF
:10071000880000209000002008B500BF0020009055
:100720000E48006840F480400C49086008460068A4
:1007300000F48040009000BF00BF00BF0020009088
:10074000081F006840F08050091F086008460068D4
:1007500000F08050009000BF00BF08BD4438024048
:1007600001460846002809DB00F01F0301229A40D9
:1007700043099B0003F1E023C3F8002100BF704749
:100780002DE9F05F80460D461646002701F07EFAFF
:10079000074639462A46334601F00700C0F1070AEA
:1007A000BAF1040F02D94FF0040A01E0C0F1070AC0
:1007B000D14600F1040ABAF1070F02D24FF0000A45
:1007C00001E0A0F1030AD4464FF0010A0AFA09FA3F
:1007D000AAF1010A0AEA020A0AFA0CFA4FF0010B1E
:1007E0000BFA0CFBABF1010B0BEA030B4AEA0B040F
:1007F0002146404601F052FABDE8F09F00BF00F0EC
:100800000702064B19684FF6FF031940044B0B43D0
:1008100043EA0221014B196000BF70470CED00E074
:100820000000FA0570B504460D460CB9012070BDF4
:100830005848006800F00700A84209D255490D70D9
:100840000846006800F00700A84201D00120EEE74A
:10085000207800F0020002281DD1207800F004006A
:10086000042805D14C48006840F4E0504A4908602B
:10087000207800F00800082805D14748006840F4B7
:100880006040454908604448006820F0F000A168D5
:10089000084341490860207800F00100A8B360686F
:1008A000012807D13C4808380068C0F34040B8B977
:1008B0000120BCE76068022802D06068032807D1E5
:1008C000354808380068C0F3406048B90120AEE7F9
:1008D000314808380068C0F3400008B90120A6E795
:1008E0002D48006820F00300616808432A49086029
:1008F000FFF7BCFE064609E0FFF7B8FE801B41F299
:100900008831884202D9032091E707E02248006835
:1009100000F00C006168B0EB810FEDD11D4800685C
:1009200000F00700A84209D91A490D70084600686E
:1009300000F00700A84201D0012078E7207800F0FD
:100940000400042807D11448006820F4E050E1684E
:10095000084311490860207800F00800082808D1F1
:100960000D48006820F46040216940EAC1000A494E
:10097000086000F03FF808490968C1F30311074A0D
:10098000515CC8400649086006480068FFF79EFEB3
:1009900000204CE7003C024008380240A024000838
:1009A0008800002090000020014800687047000087
:1009B0008800002000B5FFF7F7FF04490968C1F37C
:1009C0008221034A515CC84000BD00000838024043
:1009D000B024000800B5FFF7E7FF04490968C1F338
:1009E0004231034A515CC84000BD00000838024053
:1009F000B02400082DE9F047002400250026A14678
:100A00002548006800F00C0020B1042805D0082813
:100A10003AD105E0DFF8849039E0DFF8849036E0E1
:100A20001D48001F006800F03F041B48001F0068BD
:100A300000F4800078B11A481749091F0968C1F30A
:100A40008811A0FB01700146224600233846FFF7BB
:100A5000C1FB05460EE011480F49091F0968C1F3A3
:100A60008811A0FB01700146224600233846FFF79B
:100A7000B1FB05460848001F0068C0F30140401C58
:100A80004600B5FBF6F902E0DFF8109000BF00BFAA
:100A90004846BDE8F0870000083802400024F40012
:100AA00040787D01F8B504460CB90120F8BD2078E6
:100AB00000F00100002874D0F948006800F00C0034
:100AC00004280DD0F648006800F00C00082813D167
:100AD000F348001F006800F48000B0F5800F0BD1D0
:100AE000EF4808380068C0F34040002859D06068DB
:100AF000002856D10120D9E700BF6068B0F5803FDB
:100B000008D1E7480838006840F48030E4490839E3
:100B100008601EE06068B0F5A02F0DD1E0480838ED
:100B2000006840F48020DE49083908600846006803
:100B300040F4803008600CE0D9480838006820F4A0
:100B40008030D749083908600846006820F48020C2
:100B5000086000BF606890B1FFF788FD054606E0B9
:100B6000FFF784FD401B642801D903209EE7CC4891
:100B700008380068C0F340400028F1D011E0FFF7CA
:100B800075FD054606E0FFF771FD401B642801D99D
:100B900003208BE7C24808380068C0F340400028B3
:100BA000F1D1207800F0020002285FD1BC48006833
:100BB00000F00C0058B1BA48006800F00C0008289A
:100BC0001CD1B748001F006800F48000B0B9B448D9
:100BD00008380068C0F3400020B1E068012801D067
:100BE000012063E7AE480838006820F0F80021696A
:100BF00040EAC100AA490839086037E0E06800B35C
:100C00000120A8490860FFF731FD054606E0FFF71F
:100C10002DFD401B022801D9032047E7A0480838D2
:100C20000068C0F340000028F1D09D4808380068F3
:100C300020F0F800216940EAC100994908390860AC
:100C400014E0002097490860FFF710FD054606E014
:100C5000FFF70CFD401B022801D9032026E790482E
:100C600008380068C0F340000028F1D1207800F077
:100C7000080008282CD16069A8B101208A490860C1
:100C8000FFF7F4FC054606E0FFF7F0FC401B0228E6
:100C900001D903200AE782486C300068C0F34000A5
:100CA0000028F1D014E000207F490860FFF7DEFC47
:100CB000054606E0FFF7DAFC401B022801D90320B5
:100CC000F4E677486C300068C0F340000028F1D1AA
:100CD000207800F00400042870D1002770483830D4
:100CE000006800F0805090B900BF002000906C4870
:100CF0003830006840F08050694938310860084653
:100D0000006800F08050009000BF00BF01276748D6
:100D1000006800F48070B0B96448006840F48070E6
:100D200062490860FFF7A2FC054606E0FFF79EFC5B
:100D3000401B022801D90320B8E65C48006800F493
:100D400080700028F2D000BFA068012808D1544864
:100D50006830006840F001005149683108601DE0CA
:100D6000A06805280DD14E486830006840F00400A6
:100D70004B49683108600846006840F0010008608F
:100D80000CE047486830006820F0010044496831B1
:100D900008600846006820F00400086000BFA068F2
:100DA000A8B1FFF763FC054609E0FFF75FFC401BB5
:100DB00041F28831884202D9032077E626E038489C
:100DC00068300068C0F340000028EED013E0FFF761
:100DD0004DFC054608E0FFF749FC401B41F2883115
:100DE000884201D9032061E62D4868300068C0F3CD
:100DF00040000028EFD1012F07D129483830006882
:100E000020F0805026493831086000BFA0690028D2
:100E100045D02348006800F00C0008285DD0A06988
:100E2000022845D100201F490866FFF71FFC054630
:100E300006E0FFF71BFC401B022801D9032035E622
:100E4000174808380068C0F340600028F1D1D4E9A1
:100E500007010843616A40EA81110122A06AC2EBDE
:100E6000500041EA00412C20005D41EA00600C493D
:100E7000091F086001200B490866FFF7F7FB0546CC
:100E800006E0FFF7F3FB401B022801D903200DE623
:100E9000034808380068C0F340600028F1D049E0FA
:100EA0000838024000004742800E47420070004070
:100EB000002021490866FFF7D9FB054606E0FFF749
:100EC000D5FB401B022801D90320EFE51B48006831
:100ED000C0F340600028F2D12CE0A069012800D1C5
:100EE000E4E51648001D0668A069012820D006F434
:100EF0008001E06981421BD106F03F01206A8142F6
:100F000016D147F6C0703040616AB0EB811F0FD137
:100F100006F440310122A06AC2EB5000B1EB004F51
:100F200006D106F070612C20005DB1EB006F01D09E
:100F30000120BBE50020B9E500004742003802402F
:100F400070B504462546681EB0F1807F01D30120AC
:100F50000FE0681E4FF0E02148610F214FF0FF3095
:100F600000F09CFE00204FF0E0218861072008611E
:100F7000002070BD704770472DE9F84F0446206887
:100F800005682068C668206847694FF00009CA46AE
:100F900005F00F09B9F1000F0AD105F0200038B1B2
:100FA00006F0200020B1204600F024FCBDE8F88FB8
:100FB000B9F1000F7CD007F0010018B906F4907069
:100FC000002875D005F0010030B106F4807018B12A
:100FD000206C40F00100206405F0040030B107F0FF
:100FE000010018B1206C40F00200206405F00200FE
:100FF00030B107F0010018B1206C40F0040020640B
:1010000005F0080048B106F0200010B907F0010013
:1010100018B1206C40F008002064206C002846D0F5
:1010200005F0200028B106F0200010B1204600F0A5
:10103000E1FB20684069C0F3801A206C00F00800D2
:1010400010B9BAF1000F2DD0204600F08DFB2068BA
:10105000406900F04000402820D100BF00BF216857
:10106000143151E8001F21F040002168143141E89B
:101070000002002AF3D100BFA06B50B17548A16BEC
:101080000865A06BFFF7E9F988B1A06B016D88478F
:101090000DE02046FFF76FFF09E009E02046FFF76B
:1010A0006AFF04E02046FFF766FF002020647DE72A
:1010B000206B012876D105F01000002872D006F0D0
:1010C00010000028FAD000BF0020009020680068BF
:1010D000009020684068009000BF00BF2068406911
:1010E00000F0400040285ED1A06B006840681FFA05
:1010F00080F8B8F1000F54D0A08D404551DDA4F820
:101100002E80A06BC069B0F5807F43D000BF00BFC8
:1011100021680C3151E8001F21F4807021680C31E6
:1011200041E80002002AF3D100BF00BF00BF2168E0
:10113000143151E8001F21F001002168143141E809
:101140000002002AF3D100BF00BF00BF21681431A4
:1011500051E8001F21F040002168143141E80002ED
:10116000002AF3D100BF202084F83E000020206335
:1011700000BF00BF21680C3151E8001F21F01000B2
:1011800021680C3141E80002002AF3D100BFA06BB6
:10119000FFF70DF9A08DE28D801A81B22046FFF78E
:1011A000E9FE03E740E0A08DE18D401A1FFA80F8C8
:1011B000E08DC0B3B8F1000F35D000BF00BF21688B
:1011C0000C3151E8001F21F4907021680C3141E886
:1011D0000002002AF3D100BF00BF00BF2168143114
:1011E00051E8001F21F001002168143141E800029C
:1011F000002AF3D100BF202084F83E0000202063A5
:1012000000BF00BF21680C3151E8001F21F0100021
:1012100021680C3141E80002002AF3D100BF4146A9
:101220002046FFF7A7FEC1E605F0800030B106F0CA
:10123000800018B1204600F092FCB7E605F04000AF
:1012400030B106F0400018B1204600F0C3FAADE618
:1012500000BFABE65517000810B504460CB90120D5
:1012600010BDA06900B100E000BF94F83D0028B9AE
:10127000002084F83C00204600F028F8242084F860
:101280003D002068C06820F400502168C8602046F6
:1012900000F02CFB2068006920F490402168086170
:1012A0002068406920F02A00216848612068C068F1
:1012B00040F400502168C86000202064202084F899
:1012C0003D0084F83E000020CAE7000010B586B05B
:1012D0000446142101A8FEF7B5FF1F492068884283
:1012E00038D100BF002000901C48006840F010007A
:1012F0001A4908600846006800F01000009000BF1E
:1013000000BF00BF0020009014481438006840F06F
:1013100001001249143908600846006800F0010015
:10132000009000BF00BF4FF4C06001900220029007
:1013300001200390032004900720059001A908488C
:10134000FFF7A0F8002203212520FFF719FA252036
:10135000FFF706FA06B010BD001001404438024005
:10136000000002402DE9F84F04460E461746994604
:101370004FF0000A94F83E0020285FD106B117B95B
:101380000120BDE8F88F00BF94F83C00012801D18E
:101390000220F6E7012084F83C0000BF0020206412
:1013A000222084F83E0000202063FFF75FF9824688
:1013B000A785E785A068B0F5805F04D1206910B9E2
:1013C0000025B04602E035464FF0000800BF00207F
:1013D00084F83C0000BF29E053460022202120462B
:1013E000CDF8009000F0EBFB08B10320C9E745B948
:1013F00020684068C0F30800A8F8000008F102085F
:1014000011E0A068B0F5805F03D0A06828B920691A
:1014100018B920684068287004E02068406800F02F
:101420007F0028706D1CE08D401EE085E08D002857
:10143000D2D1202084F83E000020A2E70220A0E7BD
:1014400070B504460D46164694F83E00202816D185
:1014500005B10EB9012070BD00BF94F83C00012811
:1014600001D10220F7E7012084F83C0000BF0020F2
:10147000206332462946204600F04EFBEBE702206F
:10148000E9E700000121014A116070478000002057
:101490002DE9F84F04460E46174699464FF0000ACC
:1014A00094F83D0020285AD106B117B90120BDE8B3
:1014B000F88F00BF94F83C00012801D10220F6E724
:1014C000012084F83C0000BF00202064212084F823
:1014D0003D00FFF7CBF88246A784E784A068B0F50B
:1014E000805F04D1206910B90025B04602E035467E
:1014F0004FF0000800BF002084F83C0000BF1BE054
:101500005346002280212046CDF8009000F057FB82
:1015100008B10320CBE745B9B8F80000C0F30800D4
:101520002168486008F1020803E0287821684860D3
:101530006D1CE08C401EE084E08C0028E0D1534616
:10154000002240212046CDF8009000F038FB08B181
:101550000320ACE7202084F83D000020A7E702200C
:10156000A5E7704700BFFEE700B587B0142102A8C9
:10157000FEF768FE00BF002001901F48006840F0A1
:1015800004001D4908600846006800F0040001904E
:1015900000BF00BF00BF002001900846006840F077
:1015A000800008600846006800F08000019000BFDD
:1015B00000BF00BF002001900846006840F0010015
:1015C00008600846006800F00100019000BF00BFFD
:1015D00000224FF400510948FFF742F84FF4005041
:1015E00002900120039004900020059002A9034876
:1015F000FEF748FF07B000BD303802400008024047
:1016000010B50B480B4908604FF4E13048600021E9
:1016100008488160C16001610C2141610021816144
:10162000C161FFF719FE08B1FEF7BEFE10BD000054
:1016300000100140F802002000BFFEE770B59AB02C
:10164000044622460AA101A800F00CFB01A8FEF7FF
:101650002EFE86B2FF23324601A90748FFF718FF86
:10166000054615B100201AB070BD0120FBE700004F
:101670000D0A257300000000F802002000BFFEE7FD
:101680007047704710B5FEF7F7FF10BD00B593B077
:10169000302107A8FEF7D6FD142102A8FEF7D2FDDF
:1016A00000BF002001902448006840F0805022498B
:1016B00008600846006800F08050019000BF00BF3D
:1016C00000BF002001901D48006840F440401B49C5
:1016D00008600846006800F44040019000BF00BF69
:1016E0000220079001200A9010200B9002200D90FC
:1016F00000210E9108210F91642110910221119176
:101700000421129107A8FFF7CDF908B1FEF74CFEAE
:101710000F20029002200390002004904FF480508C
:10172000059000200690032102A8FFF77BF808B17E
:10173000FEF73AFE13B000BD403802400070004092
:101740000348006840F470000149086070470000D9
:1017500088ED00E070B50546AC6B0020E085E084C4
:101760002046FFF708FC70BD00BF00BF02680C32C6
:1017700052E8002F22F4907102680C3242E8001304
:10178000002BF3D100BF00BF00BF0268143252E843
:10179000002F22F001010268143242E80013002BEE
:1017A000F3D100BF016B01290ED100BF00BF026859
:1017B0000C3252E8002F22F0100102680C3242E88D
:1017C0000013002BF3D100BF202180F83E10002130
:1017D0000163704710B504462068C06820F04000DF
:1017E0002168C860202084F83D002046FFF7B9FE3C
:1017F000002010BDF8B5044694F83E00222873D1AD
:10180000A068B0F5805F0CD1206950B90025A66AA8
:1018100020684068C0F308003080A06A801CA06285
:1018200015E0A56A0026A068B0F5805F03D0A06827
:1018300028B9206918B920684068287004E0206839
:10184000406800F07F002870A06A401CA062E08D14
:10185000401E80B2E085002844D12068C06820F096
:1018600020002168C8602068C06820F4807021686A
:10187000C8602068406920F001002168486120208C
:1018800084F83E00206B012826D10020206300BF91
:1018900000BF21680C3151E8001F21F010002168C1
:1018A0000C3141E80002002AF3D100BF2068006833
:1018B00000F0100010280AD100BF0020009020681E
:1018C0000068009020684068009000BF00BFA18DB4
:1018D0002046FFF74FFB02E02046FFF7D3FD002034
:1018E000F8BD01E00020FBE70220F9E72DE9F84F01
:1018F00004462068006920F44050E16808432168EC
:1019000008612169A068084361690843E1690843E7
:1019100000902068C06849F20C6188430099084330
:101920002168C8602068406920F44070A1690843BC
:101930002168486176492068884203D0754920684B
:10194000884203D1FFF746F8814602E0FFF732F8FC
:101950008146E069B0F5004F6CD102206168A0FBC0
:10196000015003461920A9FB007001462A4638465B
:10197000FEF730FC6421B0FBF1F04FEA001A0220C0
:101980006168A0FB01510B461920A9FB00712A4692
:101990003846FEF71FFC834602206168A0FB015019
:1019A00003461920A9FB00712A463846FEF712FCAF
:1019B0006421B0FBF1F000EBC00101EB0010ABEBD8
:1019C0008000322101EBC0006421B0FBF1F000F097
:1019D000F8000AEB400A02206168A0FB01500346B0
:1019E0001920A9FB007001462A463846FEF7F2FB93
:1019F000834602206168A0FB015003461920A9FB21
:101A000000712A463846FEF7E5FB6421B0FBF1F091
:101A100000EBC00101EB0010ABEB8000322101EBC9
:101A2000C0006421B0FBF1F000F0070050442168D1
:101A300088606AE004206168A0FB01500346192019
:101A4000A9FB007001462A463846FEF7C3FB8246D2
:101A500004206168A0FB015003461920A9FB007017
:101A600001462A463846FEF7B5FB6421B0FBF1F08B
:101A700000EBC00101EB0010AAEB8000322101EB6A
:101A800000106421B0FBF1F000F0F00A042061685E
:101A9000A0FB017003461920A9FB00513A462846D5
:101AA000FEF798FB6421B0FBF1F00AEB001A04206A
:101AB0006168A0FB01510B461920A9FB00712A4661
:101AC0003846FEF787FB834604206168A0FB01507F
:101AD00003461920A9FB007001462A463846FEF746
:101AE00079FB6421B0FBF1F000EBC00101EB0010C9
:101AF000ABEB8000322101EB00106421B0FBF1F070
:101B000000F00F00504421688860BDE8F88F0000A5
:101B1000001001400014014010B5034699629A85F7
:101B2000DA8500201864222083F83E0000BF0020E0
:101B300083F83C0000BF1868C06840F480701C68DF
:101B4000E0601868406940F001001C686061186836
:101B5000C06840F020001C68E060002010BD014615
:101B600091F83D00212828D18868B0F5805F0BD11D
:101B7000086948B90A6A1088C0F308000B68586001
:101B8000086A801C086205E00B6A581C0862187815
:101B90000B685860C88C401E80B2C88458B9086869
:101BA000C06820F080000B68D8600868C06840F00A
:101BB00040000B68D860002070470220FCE72DE948
:101BC000F04104460D4617469846069E34E0701CC8
:101BD00088B32EB1FEF74AFDA0EB0800B0422BD926
:101BE00000BF00BF21680C3151E8001F21F4D07004
:101BF00021680C3141E80002002AF3D100BF00BF88
:101C000000BF2168143151E8001F21F00100216854
:101C1000143141E80002002AF3D100BF202084F8EB
:101C20003D0084F83E0000BF002084F83C0000BF67
:101C30000320BDE8F081FFE7206800682840A84243
:101C400001D1012000E00020B842C0D00020F0E720
:101C500010B50248FFF790F910BD0000F80200200F
:101C600000BFFEE70FB4084B10B504A902AA039801
:101C700000F038F8044602A9002000F00FF92046D1
:101C800010BC5DF814FB00009D1E000802480068AF
:101C9000C0F30220704700000CED00E010B50028F2
:101CA00004DB0A07130E054A135406E00A07140E54
:101CB000034A00F00F031B1FD45410BD00E400E0E2
:101CC00018ED00E002E008C8121F08C1002AFAD18E
:101CD00070477047002001E001C1121F002AFBD1AC
:101CE000704700002DE9FF4F8BB09A460F4605461E
:101CF000002606E025280BD052460D9990476D1C12
:101D0000761C28780028F5D10FB03046BDE8F08F5A
:101D10000024A0460122604900E0044315F8013F79
:101D2000203B02FA03F00842F7D128782E2817D179
:101D300015F8010F44F004042A280ED06FF02F028A
:101D40002878A0F1300109290AD808EB880102EBB4
:101D5000410100EB01086D1CF2E757F8048B6D1C84
:101D6000287869283ED006DC0028CDD063280BD027
:101D7000642804D136E0732810D075284BD0524621
:101D80000D999047761C85E017F8040B8DF800003C
:101D900000208DF80100E946012003E057F8049B7C
:101DA0004FF0FF3061074FF0000401D40AE0641CDB
:101DB00044450DDA8442FADB19F804100029F6D103
:101DC00006E0641C8442FCDB19F804100029F8D1F9
:101DD000264404E019F8010B52460D999047641E01
:101DE000F8D257E001CF4FF00A0B002802DA404248
:101DF0002D2102E0210504D52B218DF8241001218D
:101E000003E0E10705D02021F7E70DF12009089153
:101E10000CE00021F9E701CF4FF00A0BF9E7594632
:101E2000FEF759FA01F1300209F8012D0028F6D128
:101E3000ADEB090000F1200B600701D44FF0010861
:101E4000D84502DDA8EB0B0000E00020804600240E
:101E500006E009A85246005D0D999047641C761C67
:101E600008988442F5DB04E0302052460D999047F3
:101E7000761CB8F10001A8F10108F5DC05E019F8BD
:101E8000010B52460D999047761CBBF10001ABF156
:101E9000010BF4DC6D1C34E7092801000A68531CAF
:101EA0000B6010707047000070B505460E462A465C
:101EB0000EA11248FFF7D6FE1048FFF7BFFB002423
:101EC00008E056F82400FFF7B9FB56F8240000F0AC
:101ED00059F9641CAC42F4DB0848FEF7E8F9044603
:101EE00021460648FEF7AEF970BD0000417267203A
:101EF000636F756E743A25640000000004010020D1
:101F000070B504460D4602A0FEF730FA70BD000021
:101F10001B5B324A1B5B48002DE9F043FDB0804655
:101F2000894601250024002627482849086006E044
:101F3000681CC5B225480068C06824490860234869
:101F40000068C0680028F3D11F482049086020A11C
:101F50006846FEF782F96846FFF770FB2FE01B48E2
:101F60000068621C2AA103686846FFF77BFE68468A
:101F7000FEF79DF9C0F11800C6B203E026A168463D
:101F8000FEF76BF9301EA6F10101CEB2F6D10F4873
:101F9000006841686846FEF760F96846FFF74EFB47
:101FA0000A480068C06809490860601CC4B26846F5
:101FB000FEF77DF9074639466846FEF743F9AC421D
:101FC000CDD17DB0BDE8F08360000020840000200A
:101FD000466F756E64204176616C6961626C652044
:101FE000636F6D6D616E643A0D0A436F6D6D616E66
:101FF000643A202020202020202020202020202083
:1020000020206465736372697074696F6E3A0000B2
:1020100025642E2025730000200000002DE9FC5FC0
:1020200080464E484E49086013E04D480068C0683D
:102030004B4908600846006858B94AA0FEF796F96F
:102040008246BAF1010F01D1FEF7AEF90120BDE8D9
:10205000FC9F434909680868FEF729F9064640498C
:102060000968324608684146FEF728F90028DCD1A5
:1020700000254248C0F8008008E06D1C40A13F48A0
:102080000068FEF7F6F8401C3C4908603CA13B485C
:102090000068FEF7EEF80028EFD13848C0F800805D
:1020A000AB464FEA8B0000F025F90446002648E0D5
:1020B00033A132480068FEF7DCF8814630A12F4892
:1020C0000068FEF7D6F8401C2DA10190FEF7D1F86C
:1020D0000746CFB94846FEF7EAF8019000F00AF942
:1020E00044F826004846FEF7E2F825A1019023486F
:1020F0000068FEF7BEF8401C009054F82600DDE9A9
:102100000012FEF7C8F81BE0A7EB090000F0F2F898
:1021100044F826001AA119480068FEF7AAF8401CE6
:10212000A7EB0902019054F826000199FEF7B3F8D5
:1021300013A112480068FEF79CF8401C0F49086084
:10214000761CAE42B4DB0648006821468268284609
:102150009047204600F016F8002078E76000002045
:10216000840000200D0A436F6D6D616E64204E6F18
:102170007420466F756E642100000000700000201E
:10218000202D000010B5002821D0114B0022001F87
:10219000196803E0814203D80A4649680029F9D149
:1021A00052B11368841A9C4204D10068184410602C
:1021B000104602E0506000E0186039B102680B1A66
:1021C000934203D10B681A4402604968416010BD14
:1021D0009800002070B504460D4602A0FFF72EFAC5
:1021E00070BD000048656C6C6F2C776F726C643248
:1021F0000000000070B504460D4602A0FFF71EFA6D
:1022000070BD000048656C6C6F2C776F726C643326
:10221000000000007CB505460E4615A0FFF70EFA3B
:1022200022E0FF23012216491648FFF79BF8D8B990
:1022300013480078032803D113A0FFF7FFF914E037
:10224000002403E013A0FEF791F8641C6846FEF733
:102250002EF8A042F6D80A4802780FA16846FFF788
:1022600001FD6846FEF782F8DBE700BF7CBD000099
:10227000E994AEE580BCE6A380E6B58B3A20200069
:1022800074000020F8020020E98080E587BA2E2E35
:102290002E0000007F00000025640000FEF7F8F922
:1022A000FFF7F4F9FFF760F9FFF7AAF901220A49ED
:1022B0000A48FFF7C5F80AA0FEF758F80AA0FEF78B
:1022C00055F808E00A480068012804D100F048F8F1
:1022D000002007490860F5E774000020F80200209C
:1022E0001B5B324A1B5B4800487963202D3E00008F
:1022F00080000020F0B50B30154D20F007010024C0
:10230000144A0FE003688B420BD38B4205D95E1A47
:1023100043184768C3E9006700E04368136002C0E0
:1023200004E0021D10680028ECD12046002802D1EC
:10233000286808B10020F0BD064A07481060074A27
:10234000121A22F00702C0E9002401202860D7E712
:102350009C0000209800002044030020400500203D
:1023600010B54FF400513448FEF770F93348007847
:1023700008281DD00D2802D01B2830D12BE0304872
:10238000006818B92FA0FDF7F1FF4DE000202C499F
:1023900008602F48FFF742FE2D48FDF788FF0446EE
:1023A00021462B48FDF74EFF26A0FDF7DFFF3BE05F
:1023B0002348006818B927A0FDF7D8FF34E00021B2
:1023C0001F480068401E1E4A1060214A115422A076
:1023D000FDF7CCFF28E001202049086000BF174826
:1023E000007820281FDB154800787E281BDC144865
:1023F0000068642810DA1148017811480268006802
:10240000401C0F4B186012488154FF2301220B49D6
:102410001348FFF73DF807E00948006818B909A01C
:10242000FDF7A4FF00E000BF00BF012203490C48F4
:10243000FFF706F810BD00000008024074000020FD
:10244000780000200D0A487963202D3E000000002E
:10245000A0000020070000007F0000007C0000209A
:10246000F802002070B504460D4603A0FFF7E6F819
:1024700009A0FDF77BFF70BD1B5B376D54614B6599
:10248000546F5269205368656C6C207665722E20FB
:10249000302E302E340000001B5B306D0000000039
:1024A0000000000000000000010203040607080904
:1024B00000000000010203047072696E742022485B
:1024C000656C6C6F2C776F726C64322200000000B8
:1024D0007072696E74202248656C6C6F2C776F7215
:1024E0006C64332200000000446973706C617920D1
:1024F0006B65792076616C75652E00007465737468
:10250000206172672064657461696C732E0000003D
:1025100068656C6C6F32000068656C6C6F3300002E
:102520006B65797363616E00436C656172207468DA
:10253000652073637265656E0000000076657273D6
:10254000696F6E00646973706C61792074686520CE
:102550007368656C6C2076657273696F6E20696E46
:10256000666F726D6174696F6E0000006C697374E0
:1025700020746865206176616C6961626C652063B6
:102580006F6D6D616E6420616E6420697473206488
:1025900065736372697074696F6E0000636C656166
:1025A000720000006172677465737400636D646C1F
:1025B00069737400D425000800000020A00000000A
:1025C000C41C000874260008A0000020A008000019
:1025D000D41C00089C25000828250008011F0008BD
:1025E00000000000A4250008FC240008A91E000823
:1025F0000000002020250008E8240008152200081B
:102600001000002018250008D0240008F52100083B
:102610002000002010250008B8240008D52100085B
:10262000300000203C2500084425000865240008EF
:1026300040000020AC2500086C250008191F000888
:10264000500000200000000000000000000000001A
:102650000000000000000000000000000024F40062
:102660000000000010000000010000000000000059
:042670000000000066
:040000050800019955
:00000001FF
