:020000040800F2
:1000000000000220711F0008C9070008CB07000884
:10001000CD070008CF070008D10700080000000046
:10002000000000000000000000000000D3070008EE
:10003000D507000800000000D7070008D90700080E
:10004000C11F0008C11F0008C11F0008C11F000810
:10005000C11F0008C11F0008C11F0008C11F000800
:10006000C11F0008C11F0008C11F0008C11F0008F0
:10007000C11F0008C11F0008C11F0008C11F0008E0
:10008000C11F0008C11F0008C11F000800000000B8
:10009000000000000000000000000000C11F000878
:1000A000C11F0008C11F0008C11F0008C11F0008B0
:1000B000C11F0008C11F0008C11F0008C11F0008A0
:1000C000C11F0008C11F0008C11F0008C11F000890
:1000D000C11F0008E1070008C11F00080000000060
:1000E000C11F0008C11F0008C11F00080000000058
:1000F000000000000000000000000000C11F000818
:1001000000000000C11F0008C11F0008C11F000837
:1001100000000000000000000000000000000000DF
:10012000C11F0008C11F0008C11F0008C11F00082F
:10013000C11F0008000000000000000000000000D7
:10014000000000000000000000000000C11F0008C7
:10015000C11F0008C11F0008C11F0008C11F0008FF
:10016000C11F0008C11F00080000000000000000BF
:10017000000000000000000000000000000000007F
:1001800000000000C11F0008000000000000000087
:08019000C11F0008C11F000897
:1001A00010B5054C237833B9044B13B10448AFF3B1
:1001B00000800123237010BDE0000020000000003B
:1001C000D429000808B5034B1BB103490348AFF31A
:1001D000008008BD00000000E4000020D4290008D1
:1001E000034613F8012B002AFBD1181A0138704777
:1001F00001F0FF01102A2BDB10F0070F08D010F8D8
:10020000013B013A8B422DD010F0070F42B3F6D1DB
:10021000F0B441EA012141EA014122F007047FF0F4
:1002200000070023F0E80256083C85EA010586EA4B
:10023000010685FA47F5A3FA87F586FA47F6A5FA87
:1002400087F68EB9EED1F0BC01F0FF0102F0070293
:1002500032B110F8013B013A83EA010313B1F8D13E
:100260000020704701387047002D06BF354603381F
:10027000073815F0010F07D1013015F4807F02BF58
:10028000013015F4C03F0130F0BC0138704700BFA9
:1002900053B94AB9002908BF00281CBF4FF0FF31ED
:1002A0004FF0FF3000F074B9ADF1080C6DE904CEE9
:1002B00000F006F8DDF804E0DDE9022304B0704741
:1002C0002DE9F047089D04468E46002B4DD18A4209
:1002D000944669D9B2FA82F252B101FA02F3C2F13C
:1002E000200120FA01F10CFA02FC41EA030E9440CD
:1002F0004FEA1C48210CBEFBF8F61FFA8CF708FBEE
:1003000016E341EA034306FB07F199420AD91CEBC5
:10031000030306F1FF3080F01F81994240F21C81F7
:10032000023E63445B1AA4B2B3FBF8F008FB10333F
:1003300044EA034400FB07F7A7420AD91CEB040474
:1003400000F1FF3380F00A81A74240F20781644444
:10035000023840EA0640E41B00261DB1D4400023C9
:10036000C5E900433146BDE8F0878B4209D9002D2D
:1003700000F0EF800026C5E9000130463146BDE8B7
:10038000F087B3FA83F6002E4AD18B4202D3824221
:1003900000F2F980841A61EB030301209E46002DD0
:1003A000E0D0C5E9004EDDE702B9FFDEB2FA82F225
:1003B000002A40F09280A1EB0C014FEA1C471FFA83
:1003C0008CFE0126200CB1FBF7F307FB131140EA6A
:1003D00001410EFB03F0884208D91CEB010103F137
:1003E000FF3802D2884200F2CB804346091AA4B2F9
:1003F000B1FBF7F007FB101144EA01440EFB00FECD
:10040000A64508D91CEB040400F1FF3102D2A64531
:1004100000F2BB800846A4EB0E0440EA03409CE7D0
:10042000C6F12007B34022FA07FC4CEA030C20FA7D
:1004300007F401FA06F31C43F9404FEA1C4900FA9D
:1004400006F3B1FBF9F8200C1FFA8CFE09FB18111A
:1004500040EA014108FB0EF0884202FA06F20BD98D
:100460001CEB010108F1FF3A80F08880884240F2DD
:100470008580A8F102086144091AA4B2B1FBF9F021
:1004800009FB101144EA014100FB0EFE8E4508D91C
:100490001CEB010100F1FF346CD28E456AD90238A1
:1004A000614440EA0840A0FB0294A1EB0E01A14286
:1004B000C846A64656D353D05DB1B3EB080261EBF4
:1004C0000E0101FA07F722FA06F3F1401F43C5E9CE
:1004D000007100263146BDE8F087C2F12003D84004
:1004E0000CFA02FC21FA03F3914001434FEA1C4746
:1004F0001FFA8CFEB3FBF7F007FB10360B0C43EA38
:10050000064300FB0EF69E4204FA02F408D91CEBE7
:10051000030300F1FF382FD29E422DD902386344E5
:100520009B1B89B2B3FBF7F607FB163341EA034185
:1005300006FB0EF38B4208D91CEB010106F1FF38D4
:1005400016D28B4214D9023E6144C91A46EA0046CB
:1005500038E72E46284605E70646E3E61846F8E65D
:100560004B45A9D2B9EB020864EB0C0E0138A3E7A6
:100570004646EAE7204694E74046D1E7D0467BE787
:10058000023B614432E7304609E76444023842E7FF
:10059000704700BF014B01221A607047B80100206C
:1005A00072B6FEE700B595B03022002108A801F030
:1005B0004DFD002303930493059306930793019342
:1005C0001E4A116C41F080511164126C02F080528D
:1005D0000192019A02931A4A116841F44041116054
:1005E000126802F440420292029A02220892012109
:1005F0000B9110210C910E920F93082310936423FA
:10060000119312920423139308A800F079FF88B97C
:100610000F23039302230493002305934FF4805286
:1006200006920793032103A801F0B8F920B915B089
:100630005DF804FBFFF7B4FFFFF7B2FF003802409C
:100640000070004008B501F05DFCFFF7ABFF00F063
:1006500021F800F05FF8012209490A4800F033FF51
:10066000094800F0D7F9094800F0D4F9084B1B6895
:10067000012BFBD100F082FA054B00221A60F5E74E
:1006800048010020FC000020EC290008F4290008A3
:10069000B801002030B589B0002403940494059477
:1006A000069407940094194B1A6B42F004021A63E3
:1006B0001A6B02F004020092009A01941A6B42F045
:1006C00080021A631A6B02F080020192019A02946E
:1006D0001A6B42F001021A631B6B03F001030293D1
:1006E000029B0B4D22464FF40051284601F00CFBB3
:1006F0004FF400530393012304930593069403A935
:10070000284601F021FA09B030BD00BF0038024090
:100710000008024008B50A480A4B03604FF4E13371
:10072000436000238360C36003610C2242618361E4
:10073000C36100F0D7FB00B908BDFFF731FFFBE74D
:10074000FC0000200010014030B589B00023039365
:100750000493059306930793026803F1804303F51E
:1007600088339A4201D009B030BD0024019403F5CA
:1007700094335A6C42F010025A645A6C02F0100220
:100780000192019A02941A6B42F001021A631B6BE8
:1007900003F001030293029B4FF4C063039302230F
:1007A0000493032506950723079303A9054801F041
:1007B000CBF922462946252001F024FB252001F013
:1007C00059FBD0E700000240FEE7FEE7FEE7FEE748
:1007D000FEE770477047704708B501F0ADFB08BDF4
:1007E00008B5024800F014FD08BD00BFFC00002061
:1007F00082B0002100910B4B5A6C42F480425A6443
:100800005A6C02F480420092009A01911A6C42F0F4
:1008100080521A641B6C03F080530193019B02B059
:10082000704700BF0038024008B5024800F0F2F8F7
:1008300008BD00BFEC29000808B5034800F00CFA19
:10084000024800F0E7F808BDFC2900081C2A00084F
:1008500008B5024800F000FA08BD00BF242A0008CD
:1008600008B5024800F0F8F908BD00BF342A0008B6
:1008700070B506460D46104C02461049204601F060
:10088000DDFC204600F0E8F9002408E055F82400DB
:1008900000F0E2F955F8240001F0C0FB0134B44245
:1008A000F4DB054C2046FFF79BFC02460021204666
:1008B00001F0CCFB70BD00BFBC010020442A000841
:1008C000F0B5FFB0324B334A1A60012603E001361F
:1008D000F6B22F4A13602E4B1B68DB68002BF6D153
:1008E0002B4B2C4A1A6001A8FFF77AFC2A4D01AB6A
:1008F0001C1805F1300C2F460FCF20606160A260FC
:10090000E3603D4610346745F5D107CD2060616056
:10091000A2602A88AB78A281A37301A800F09CF999
:10092000002521E001AF3846FFF75AFC1B4B1B881E
:100930003B522246531EDCB2002AF3D1144C2368EA
:10094000596801A801F09AFC01A800F085F9236814
:10095000DB6823600135EDB201A8FFF741FC0246D8
:10096000002101A801F072FBAE420FD0084B1B68BA
:100970001B686A1C0A4901A801F060FC01A8FFF786
:100980002FFCC2B2C2F11802D2B2D3E77FB0F0BDE1
:100990004001002000000020542A00089C2A000882
:1009A000942A000810B582B0144800F055F916E0FA
:1009B000134800F051F902B010BD124800F02AF8B7
:1009C00001346846FFF70CFCA042F6D80E4B1A78AB
:1009D0000E49684601F032FC684600F01BF8FF2320
:1009E000012209490A4800F018FB0028F7D1064BFC
:1009F0001B78032BDCD00024E3E700BFA02A00080B
:100A0000B02A0008BC2A000848010020C02A0008BB
:100A1000FC00002000B59BB0014601A801F03DFCA0
:100A200001A8FFF7DDFBFF2382B201A9034800F014
:100A300088FA00B101201BB05DF804FBFC00002027
:100A40002DE9F04F83B000AF8046474B474A1A600C
:100A5000454B1D682C682046FFF7C2FB0246414605
:100A6000204601F0E3FA044670B1EB683E4A136099
:100A7000002BEDD13E48FFF7CDFF012801D001202A
:100A80006EE0FFF78DFDFAE73A4BC3F800800646AB
:100A90003949384B186801F01BFC034620B1013678
:100AA0000133344A1360F3E7324BC3F80080C7F8D0
:100AB00004D0B300073323F00703ADEB030DEB467F
:100AC00017E02846FFF78CFB01F0A0FA80464BF8B0
:100AD00024002949274B186801F0FAFB00F10109AD
:100AE0002846FFF77DFB02464946404601F0DDFB04
:100AF0000134B4422BDADFF8808041461D4B186880
:100B000001F0E6FB05464146013001F0E1FB00281B
:100B1000D7D0451B284601F079FA80464BF82400CF
:100B2000DFF854A0DFF84C905146D9F8000001F0EE
:100B3000CFFB2A46411C404601F0B7FB5146D9F88D
:100B4000000001F0C5FB0130C9F80000D0E7064BFA
:100B50001B689B68594630469847D7F804D0002058
:100B60000C37BD46BDE8F08F40010020000000209A
:100B7000C02B000844010020D82B000838B54FF4E2
:100B800000512C4801F0C6F82B4B1B780D2B11D0CF
:100B90001B2B3FD0082B2CD0A3F12002D2B25E2A0F
:100BA0000ED8264A1268632A38DD4AB92448FFF76E
:100BB00031FF05E0214B1B6843B92148FFF72AFFAD
:100BC00001221D491F4800F07EFC38BD00251B4B4B
:100BD0001D601D4C2046FFF733FF2046FFF700FB4A
:100BE00002462946204601F031FA1548FFF712FF68
:100BF000E6E7124B1B681BB91448FFF70BFFDFE752
:100C0000013B0E4A1360104A0021D1541048FFF7EF
:100C100001FFD5E70F4A01211160BDE7501C0749CC
:100C2000086009498B54FF2301220349054800F05D
:100C300088F9C5E70008024048010020B4010020FF
:100C4000DC2B0008FC0000204C010020E82B0008F1
:100C5000BC2A0008B001002000B59BB002460A493A
:100C600001A801F0EBFA01A8FFF7BAFAFF2382B25C
:100C700001A9064800F065F918B100201BB05DF825
:100C800004FB0120FAE700BFEC2B0008FC00002069
:100C9000026802F10C0353E8003F23F490730C3216
:100CA00042E800310029F3D1026802F1140353E84D
:100CB000003F23F00103143242E800310029F3D150
:100CC000036B012B05D0202380F83E300023036303
:100CD0007047026802F10C0353E8003F23F0100351
:100CE0000C3242E800310029F3D1ECE790F83D30B6
:100CF000DBB2212B01D0022070478368B3F5805FFF
:100D000017D0036A5A1C02621A7803685A60C38CAF
:100D10009BB2013B9BB2C3844BB90268D36823F0FA
:100D20008003D3600268D36843F04003D36000209F
:100D300070470369002BE4D1036A1B880268C3F380
:100D400008035360036A02330362E0E738B50446E0
:100D50000268136923F44053C1680B43136183682D
:100D60000269134342691343C2691A430168CB689D
:100D700023F4164323F00C031343CB60026853693A
:100D800023F4407381690B4353610368314A9342F2
:100D900006D002F58062934202D000F0B5FE01E079
:100DA00000F0C2FEE369B3F5004F29D0002103181B
:100DB00049411B1841F10001C90041EA5371DB00B0
:100DC000181863684FEA83024FEA937341F10001F8
:100DD000FFF75EFA204DA5FB00325109642303FBA7
:100DE00011031B013233A5FB03235B0903F0F0025F
:100DF00002EB011203F00F03216813448B6038BD2E
:100E00000023021843EB0301121841F10001C9004D
:100E100041EA5271D200101841F100016268921843
:100E20005B41FFF735FA0C4DA5FB003251096423F5
:100E300003FB1103DB003233A5FB03235B095A00DC
:100E400002F4F87202EB011203F007032168134465
:100E50008B60D4E7001001401F85EB512DE9F8436A
:100E600005460F4616469946DDF820802C68246812
:100E700037EA04030CBF4FF0010C4FF0000CB445EF
:100E80002DD1B8F1FF3FF1D0B8F1000F05D001F03E
:100E90005FF8A0EB09004045E8D92A6802F10C038D
:100EA00053E8003F23F4D0730C3242E800310029AC
:100EB000F3D12A6802F1140353E8003F23F0010341
:100EC000143242E800310029F3D1202385F83D3067
:100ED00085F83E30002385F83C30032000E00020F8
:100EE000BDE8F88358B310B5044690F83D300BB315
:100EF000242384F83D302268D36823F40053D36060
:100F00002046FFF723FF2268136923F490431361FF
:100F10002268536923F02A0353612268D36843F49B
:100F20000053D36000202064202384F83D3084F8EF
:100F30003E3010BD80F83C30FFF706FCD8E70120BA
:100F400070472DE9F04182B01E4690F83D30DBB28B
:100F5000202B54D104460D469046002953D0002A38
:100F600053D090F83C30012B51D0012380F83C3015
:100F700000230364212380F83D3000F0E9FF074699
:100F8000A4F82480A4F82680A368B3F5805F05D078
:100F90004FF00008002384F83C3012E0236913B1BD
:100FA0004FF00008F6E7A8460025F3E738F8023BC3
:100FB0002268C3F308035360E28C92B2013A92B202
:100FC000E284E38C9BB273B100963B460022802101
:100FD0002046FFF743FFE0B9002DE7D015F8012BBD
:100FE00023685A60E8E700963B46002240212046ED
:100FF000FFF734FF78B9202384F83D3000E0022069
:1010000002B0BDE8F0810120FAE70120F8E70220F4
:10101000F6E70320F4E70320F2E72DE9F04182B080
:101020001E4690F83E30DBB2202B5CD104460D46C4
:10103000904600295BD0002A5BD090F83C30012B11
:1010400059D0012380F83C3000230364222280F829
:101050003E20036300F07CFF0746A4F82C80A4F830
:101060002E80A368B3F5805F05D04FF00008002301
:1010700084F83C3017E0236913B14FF00008F6E71D
:10108000A8460025F3E723685B68C3F3080328F844
:10109000023B03E023685B682B700135E28D92B25E
:1010A000013A92B2E285E38D9BB2BBB100963B461A
:1010B000002220212046FFF7D1FEF0B9002DE2D01A
:1010C000A368B3F5805FE5D013B92369002BE1D0A5
:1010D00023685B6803F07F032B70DEE7202384F82E
:1010E0003E30002000E0022002B0BDE8F081012087
:1010F000FAE70120F8E70220F6E70320F4E770475B
:1011000008B50168CA6822F04002CA60202280F84F
:101110003D20FFF7F4FF002008BD704708B5806B45
:101120000023C385C384FFF7F8FF08BD704790F81C
:101130003E30DBB2222B67D18368B3F5805F4DD0A0
:10114000826AB3F5805F04D0002B54D10369002B71
:1011500051D103685B681370836A01338362C38D66
:101160009BB2013B9BB2C385002B4FD100B583B02E
:101170000268D36823F02003D3600268D36823F4A5
:101180008073D3600268536923F001035361202305
:1011900080F83E30036B012B33D1002303630268D8
:1011A00002F10C0353E8003F23F010030C3242E835
:1011B00000310029F3D103681A6812F0100F06D02D
:1011C000002201921A6801925B680193019B818D54
:1011D000FFF7ACFF002003B05DF804FB0269002AB2
:1011E000AED1826A03685B68C3F308031380836A25
:1011F00002338362B3E703685B6803F07F03137015
:10120000AAE7FFF7C7F9E5E702207047002070471B
:1012100030B583B0044602681368D068516913F092
:101220000F0505D113F0200F02D010F0200F19D1B7
:101230002DB111F0010119D110F4907F16D1216B5D
:1012400001297DD013F0800F03D010F0800F40F003
:10125000158113F0400F03D010F0400F40F01281C1
:1012600003B030BD2046FFF762FFF9E713F0010F2E
:1012700006D010F4807F03D0226C42F00102226479
:1012800013F0040F04D019B1226C42F00202226460
:1012900013F0020F04D019B1226C42F00402226450
:1012A00013F0080F07D010F0200F00D119B1226CF5
:1012B00042F008022264226C002AD1D013F0200FE1
:1012C00002D010F0200F29D123685B6903F040039E
:1012D000226C12F0080F00D163B32046FFF7D8FC50
:1012E00023685B6913F0400F20D0226802F11403D9
:1012F00053E8003F23F04003143242E80031002954
:10130000F3D1A36B73B1614A1A65A06B00F055FD70
:101310000028A5D0A06B036D9847A1E72046FFF7F2
:1013200006FFD1E72046FFF7F8FE99E72046FFF7D2
:10133000F4FE95E72046FFF7F0FE002323648FE7D5
:1013400013F0100F3FF47EAF10F0100F3FF47AAFA0
:10135000002301931368019353680193019B536920
:1013600013F0400F50D0A26B13685B689BB2002B48
:101370003FF476AFA18D99427FF672AFE385D369D2
:10138000B3F5807F37D0226802F10C0353E8003FA9
:1013900023F480730C3242E800310029F3D1226833
:1013A00002F1140353E8003F23F00103143242E832
:1013B00000310029F3D1226802F1140353E8003F01
:1013C00023F04003143242E800310029F3D12023F6
:1013D00084F83E3000232363226802F10C0353E8B3
:1013E000003F23F010030C3242E800310029F3D112
:1013F000A06B00F098FCA18DE38D9BB2C91A89B255
:101400002046FFF793FE2BE7A18DE38D9BB2C91A0F
:1014100089B2E38D9BB2002B3FF422AF00293FF449
:101420001FAF226802F10C0353E8003F23F49073CE
:101430000C3242E800300028F3D1226802F1140394
:1014400053E8003F23F00103143242E80030002843
:10145000F3D1202384F83E3000232363226802F175
:101460000C0353E8003F23F010030C3242E8003035
:101470000028F3D12046FFF759FEF1E62046FFF79A
:1014800035FCEDE62046FFF73BFEE9E61D110008BE
:10149000034681628285C28500201864222283F877
:1014A0003E2083F83C001968CA6842F48072CA6022
:1014B00019684A6942F001024A611A68D36843F028
:1014C0002003D360704708B590F83E30DBB2202B84
:1014D0000DD171B17AB190F83C30012B0DD00123C0
:1014E00080F83C3000230363FFF7D2FF00E00220C6
:1014F00008BD0120FCE70120FAE70220F8E7000020
:10150000002800F0E08170B582B00446036813F053
:10151000010F3BD09F4B9B6803F00C03042B2CD096
:101520009C4B9B6803F00C03082B21D06368B3F538
:10153000803F4FD0B3F5A02F52D0964B1A6822F4BB
:1015400080321A601A6822F480221A606368002BC5
:1015500050D000F0FDFC05468E4B1B6813F4003F95
:1015600014D100F0F5FC401B6428F5D90320B1E14B
:10157000884B5B6813F4800FD8D0864B1B6813F43C
:10158000003F03D06368002B00F09F81236813F0B5
:10159000020F54D07F4B9B6813F00C0F3ED07D4B55
:1015A0009B6803F00C03082B33D0E368002B68D052
:1015B000794B01221A6000F0CBFC0546754B1B6885
:1015C00013F0020F54D100F0C3FC401B0228F5D9E0
:1015D00003207FE16F4A136843F480331360B5E75B
:1015E0006C4B1A6842F480221A601A6842F4803206
:1015F0001A60ABE700F0ACFC0546664B1B6813F4C1
:10160000003FC3D000F0A4FC401B6428F5D90320A0
:1016100060E1604B5B6813F4800FC6D15D4B1B68C3
:1016200013F0020F03D0E368012B40F05081594AB8
:10163000136823F0F803216943EAC10313602368A8
:1016400013F0080F42D063696BB3534B0122C3F808
:10165000802E00F07DFC05464E4B5B6F13F0020FB1
:1016600034D100F075FC401B0228F5D9032031E18C
:10167000484A136823F0F803216943EAC103136061
:10168000DDE7454B00221A6000F062FC0546414B45
:101690001B6813F0020FD2D000F05AFC401B022846
:1016A000F5D9032016E13C4B0022C3F8802E00F050
:1016B0004FFC0546374B5B6F13F0020F06D000F06E
:1016C00047FC401B0228F5D9032003E1236813F0EF
:1016D000040F77D02F4B1B6C13F0805F33D10023A6
:1016E00001932C4B1A6C42F080521A641B6C03F06D
:1016F00080530193019B0125284B1B6813F4807FC5
:1017000023D0A368012B34D0052B38D0214B1A6F7E
:1017100022F001021A671A6F22F004021A67A36806
:10172000002B3DD000F014FC06461A4B1B6F13F043
:10173000020F46D100F00CFC801B41F28833984226
:10174000F3D90320C6E00025D6E7144A136843F412
:101750008073136000F0FCFB0646104B1B6813F40B
:10176000807FCED100F0F4FB801B0228F5D9032046
:10177000B0E0084A136F43F001031367CFE7054B4E
:101780001A6F42F004021A671A6F42F001021A67D8
:10179000C5E700BF0038024000004742007000402B
:1017A00000F0D6FB0646524B1B6F13F0020F08D019
:1017B00000F0CEFB801B41F288339842F3D903201E
:1017C00088E0EDB9A369002B00F08380484A926855
:1017D00002F00C02082A51D0022B17D0454B0022F0
:1017E0001A6600F0B5FB0446414B1B6813F0007FFE
:1017F00042D000F0ADFB001B0228F5D9032069E0C0
:101800003B4A136C23F080531364DBE7394B00220F
:101810001A6600F09DFB0546354B1B6813F0007FF0
:1018200006D000F095FB401B0228F5D9032051E0BB
:10183000E369226A1343626A43EA8213A26A520886
:10184000013A43EA0243E26A43EA0263284A5360E8
:10185000284B01221A6600F07BFB0446244B1B68D0
:1018600013F0007F06D100F073FB001B0228F5D9AE
:1018700003202FE000202DE000202BE0012B2BD0B7
:101880001B4B5B6803F48001E269914226D103F0AF
:101890003F02216A8A4223D1616A47F6C0721A4028
:1018A000B2EB811F1ED103F44031A26A5208013A03
:1018B000B1EB024F18D103F07063E26AB3EB026F31
:1018C00014D1002006E001207047012002E0012031
:1018D00000E0002002B070BD0120FBE70120F9E725
:1018E0000120F7E70120F5E70120F3E70120F1E708
:1018F000003802400000474208B5254B9B6803F0C2
:101900000C03042B3FD0082B3FD1214B5A6802F027
:101910003F025B6813F4800F12D01D4B5968C1F36E
:1019200088111C480023A1FB0001FEF7B1FC184BF5
:101930005B68C3F3014301335B00B0FBF3F025E0C8
:10194000134B5968C1F3881C4FEA4C11B1EB0C00E2
:101950006EEB0E0E4FEA8E1343EA90638101091A73
:1019600063EB0E03DB0043EA5173C90011EB0C0C6F
:1019700043F10003990200234FEA8C2041EA9C5175
:10198000FEF786FCD3E7034800E0034808BD00BF2C
:101990000038024040787D010024F400002800F067
:1019A0009B8070B50D4604464F4B1B6803F0070340
:1019B0008B4208D2CBB24C4A1370136803F0070372
:1019C0008B4240F08B80236813F0020F17D013F086
:1019D000040F04D0454A936843F4E05393602368AE
:1019E00013F0080F04D0414A936843F460439360B6
:1019F0003E4A936823F0F003A1680B439360236889
:101A000013F0010F32D06368012B21D09A1E012AF6
:101A100025D9364A126812F0020F61D033498A681C
:101A200022F0030213438B6000F092FA06462F4B1C
:101A30009B6803F00C036268B3EB820F16D000F0D2
:101A400087FA801B41F288339842F0D9032042E0A4
:101A5000264A126812F4003FE0D101203BE0234AFD
:101A6000126812F0007FD9D1012034E01E4B1B68B0
:101A700003F00703AB4207D9EAB21B4B1A701B688D
:101A800003F00703AB422DD1236813F0040F06D0F7
:101A9000164A936823F4E053E1680B43936023688C
:101AA00013F0080F07D0114A936823F460432169AB
:101AB00043EAC1039360FFF71FFF0C4B9B68C3F31E
:101AC00003130B4AD35CD8400A4B18600A4B1868C2
:101AD00000F0F2F9002070BD012070470120FAE704
:101AE0000120F8E70120F6E7003C02400038024000
:101AF000F42B00087800002074000020014B1868C7
:101B0000704700BF7800002008B5FFF7F7FF044BCF
:101B10009B68C3F38223034AD35CD84008BD00BF4F
:101B200000380240042C000808B5FFF7E7FF044B1B
:101B30009B68C3F34233034AD35CD84008BD00BF5F
:101B400000380240042C000800230F2B00F2D28042
:101B500070B582B060E085685E000324B44025EA79
:101B60000405CC68B4402C438460456825EA02052E
:101B70004C68C4F300129A402A4342605AE0DC08E1
:101B8000083450F8246003F0070295000F22AA40A1
:101B900026EA020E0A69AA4042EA0E0240F8242010
:101BA0005CE0042200E0002202FA0EF22A43023432
:101BB000514D45F82420514A14686FEA0C0224EA7A
:101BC0000C054E6816F4803F01D04CEA04054B4CDE
:101BD0002560646802EA04054E6816F4003F01D0EF
:101BE0004CEA0405454C6560A46802EA04054E68A9
:101BF00016F4801F01D04CEA0405404CA560E4684F
:101C000022404D6815F4001F01D04CEA04023B4C01
:101C1000E26001330F2B6BD801229A400C6804EA72
:101C2000020C32EA0404F4D14C6804F00304013CD1
:101C3000012C90D94A6802F00302032A09D0C46833
:101C40005D000322AA4024EA02048A68AA402243D3
:101C5000C2604A6802F00302022A90D004684FEA88
:101C6000430E032202FA0EF224EA02044A6802F04A
:101C7000030202FA0EF2224302604A6812F4403F65
:101C8000C7D0002201921E4A546C44F4804454642C
:101C9000526C02F480420192019A9C08A51C164ADB
:101CA00052F8255003F003024FEA820E0F2202FA87
:101CB0000EF225EA0205134A90423FF474AF02F592
:101CC000806290420ED002F5806290420CD002F504
:101CD000806290420AD002F5806290423FF461AF88
:101CE000072261E701225FE702225DE703225BE74B
:101CF00002B070BD704700BF00380140003C014099
:101D000000380240000002400AB1816170470904B6
:101D100081617047436901EA030221EA030141EA54
:101D200002418161704770B50446866D00F010F97C
:101D300094F83530DBB2022B06D080236365002394
:101D400084F83430012070BD05462268136823F002
:101D5000160313602268536923F080035361236CD8
:101D6000E3B12268136823F0080313602268136844
:101D700023F00103136023681B6813F0010F11D0D7
:101D800000F0E6F8431B052BF5D9202363650320FB
:101D900084F83500002384F83430D4E7A36C002B9A
:101DA000DFD1E3E7E26D3F239340B360012384F882
:101DB0003530002084F83400C5E790F83530DBB2C8
:101DC000022B03D08023436501207047052380F850
:101DD00035300268136823F0010313600020704758
:101DE000074AD36823F4E0631B041B0C000200F4D1
:101DF000E060034343F0BF6343F40033D3607047B4
:101E000000ED00E000B5194BDB68C3F30223C3F11A
:101E1000070CBCF1040F28BF4FF0040C03F1040EB3
:101E2000BEF1060F18D9033B4FF0FF3E0EFA0CFC33
:101E300021EA0C0199400EFA03F322EA0303194345
:101E400000280BDB0901C9B200F1604000F56140D8
:101E500080F800135DF804FB0023E5E700F00F00B5
:101E60000901C9B2024B1954F4E700BF00ED00E0CC
:101E700014ED00E0002807DB00F01F0240090123F9
:101E80009340024A42F82030704700BF00E100E072
:101E90000138B0F1807F0BD24FF0E0235861054A42
:101EA000F02182F823100020986107221A61704700
:101EB0000120704700ED00E010B504460E4B187885
:101EC0004FF47A73B3FBF0F30C4A1068B0FBF3F0F5
:101ED000FFF7DEFF68B90F2C01D901200AE00022CC
:101EE00021464FF0FF30FFF78DFF054B1C600020AF
:101EF00000E0012010BD00BF70000020780000202D
:101F00007400002008B50B4B1A6842F400721A6086
:101F10001A6842F480621A601A6842F480721A6089
:101F20000320FFF75DFF0F20FFF7C6FFFEF760FC01
:101F3000002008BD003C0240034A1168034B1B7897
:101F40000B441360704700BFB003002070000020F6
:101F5000014B1868704700BFB0030020034AD2F855
:101F6000883043F47003C2F88830704700ED00E019
:101F7000DFF834D00D480E490E4A002302E0D45851
:101F8000C4500433C4188C42F9D30B4A0B4C0023C1
:101F900001E013600432A242FBD3FFF7DFFF00F041
:101FA00011F8FEF74FFB70470000022000000020F0
:101FB000E0000020502C0008E0000020C8030020B2
:101FC000FEE7000070B50D4D0D4C641BA4100026FB
:101FD000A64209D10B4D0C4C00F0FCFC641BA41074
:101FE0000026A64205D170BD55F8043B984701363E
:101FF000EEE755F8043B98470136F2E7482C000815
:10200000482C0008482C00084C2C0008024B0146C4
:10201000186800F08FB800BF7C000020024B01461A
:10202000186800F01BB800BF7C00002010B5013913
:102030000244904201D1002005E0037811F8014FDD
:10204000A34201D0181B10BD0130F2E70244034641
:10205000934200D1704703F8011BF9E737B5002917
:1020600044D051F8043C0190002BA1F10404B8BF06
:10207000E41800F043F91E4A0198136833B963600D
:10208000146003B0BDE8304000F03EB9A34208D967
:10209000256861198B4201BF19685B684919216085
:1020A000EDE71A465B680BB1A342FAD911685518DF
:1020B000A5420BD1246821445418A3421160E0D1F9
:1020C0001C685B68536021441160DAE702D90C2375
:1020D0000360D6E7256861198B4204BF19685B6805
:1020E000636004BF491921605460CAE703B030BD82
:1020F000B403002070B50E4E0C463168054611B988
:1021000000F08CF830602146284600F087F8431C28
:102110000AD0C41C24F00304A04207D0211A284688
:1021200000F07CF8013001D14FF0FF34204670BD43
:10213000B80300202DE9F041CD1C25F0030508353A
:102140000C2D38BF0C25002D074601DBA94205D90F
:102150000C233B6000263046BDE8F0812E4E00F097
:10216000CDF833681C4634BB29463846FFF7C2FF1A
:10217000431C04464DD134682646002E40D12368C6
:102180003146384604EB030800F048F880453AD160
:10219000216803356D1A25F0030508350C2D38BF6D
:1021A0000C2529463846FFF7A5FF01302BD02368C0
:1021B0002B4423600EE02268521B1ED40B2A16D932
:1021C0006119A342256018BF5960636808BF316078
:1021D00062514B60384604F10B0600F095F826F08A
:1021E0000706231DF21AB6D09B1BA350B3E7626803
:1021F000A3420CBF32605A60ECE723466468B2E742
:1022000034467668B9E70C233B60384600F07CF82A
:10221000A1E72560DEE700BFB403002038B5064D16
:102220000023044608462B6000F0C6FB431C02D185
:102230002B6803B1236038BDBC0300200EB400B589
:102240009CB01DAB029006906FF0004109480791C9
:102250000491094953F8042B05910068019302A9E0
:1022600000F0B4F8029B00221A701CB05DF804EB79
:1022700003B070477C0000200802FFFF10B5024643
:10228000147813460132002CFAD1013B11F8012BCE
:1022900003F8012F002AF9D110BD034611F8012BD4
:1022A00003F8012B002AF9D1704710B50139034614
:1022B00032B111F8014F03F8014B013A002CF7D16C
:1022C0001A440021934200D110BD03F8011BF9E725
:1022D0000A7870B56AB970BD9A4209D10C460546B4
:1022E00014F8013F002BF6D015F8016F9E42F7D08D
:1022F00001300378002BEFD11846ECE7014800F0DD
:10230000F9BA00BFC0030020014800F0F4BA00BFD2
:10231000C00300202DE9F0478E689E4282460C469D
:1023200090461F4638D88A8912F4906F32D02568BB
:102330000969A5EB0109656905EB450505EBD5754F
:1023400001334B446D109D4238BF1D46530531D5B6
:102350002946FFF7EFFE064650B90C23CAF80030B5
:10236000A38943F04003A3814FF0FF30BDE8F0871D
:1023700021694A4600F0C0FAA38923F4906343F030
:102380008003A381266165614E44A5EB09052660A3
:10239000A5603E46BE4200D93E46206832464146D0
:1023A00000F0B8FAA3689B1BA36023683344236042
:1023B0000020DBE72A4600F0C7FA06460028E1D1F4
:1023C00021695046FFF74AFEC7E700002DE9F04FAC
:1023D00098468B891B069DB007460D4614460ED5C0
:1023E0000B6963B94021FFF7A5FE2860286120B979
:1023F0000C233B604FF0FF30D1E040236B610023A2
:10240000099320238DF82930CDF80C803023DFF894
:10241000A8818DF82A304FF0010923469A4613F817
:10242000012B0AB1252AF9D1BAEB040B0BD05B467C
:10243000224629463846FFF76DFF013000F0AA809A
:10244000099A5A4409929AF80030002B00F0A280B1
:1024500000234FF0FF32CDE905230AF1010A04936E
:1024600007938DF853301A935446052214F8011B34
:102470005148FDF7BDFE049AD8B9D00644BF2023C9
:102480008DF85330110744BF2B238DF853309AF841
:1024900000302A2B15D0079A544600204FF00A0C22
:1024A000214611F8013B303B092B4ED9B0B10792C0
:1024B00014E0A0EB080309FA03F313430493A246C4
:1024C000D2E7039B191D1B680391002BBBBF5B4226
:1024D00042F0020207930793B8BF049223782E2B91
:1024E0000CD163782A2B35D1039B1A1D1B680392EC
:1024F000002BB8BF4FF0FF3302340593DFF8C8A0BC
:10250000217803225046FDF773FE40B14023A0EB33
:102510000A0003FA00F0049B03430134049314F807
:10252000011B26488DF828100622FDF761FE0028C1
:1025300038D0234B1BBB039B073323F0070308331F
:102540000393099B3344099367E70CFB02320C4663
:102550000120A5E700230134059319464FF00A0C2A
:10256000204610F8012B303A092A03D9002BC5D098
:102570000591C3E70CFB012104460123F0E703ABFF
:1025800000932A460F4B04A93846AFF30080421C43
:102590000646D6D1AB895B063FF52CAF09981DB036
:1025A000BDE8F08F03AB00932A46064B04A93846DA
:1025B00000F07AF8EBE700BF0C2C0008162C00089E
:1025C0000000000015230008122C00082DE9F04738
:1025D000164699468A680B69DDF820809342B8BF99
:1025E0001346336091F8432007460C460AB1013385
:1025F00033602368990642BF33680233336025682D
:1026000015F0060506D104F1190AE36832689B1A31
:10261000AB4226DC94F84320131E226818BF012326
:1026200092062BD404F1430249463846C047013094
:102630001ED02368E568326803F00603042B08BF48
:10264000AD1AA36822690CBF25EAE57500259342FF
:10265000C4BF9B1AED1800261A34B5421AD10020C7
:1026600008E00123524649463846C047013003D1AD
:102670004FF0FF30BDE8F0870135C6E7E1185A1C7E
:10268000302081F84300224494F8451082F843102A
:102690000233C7E70123224649463846C047013086
:1026A000E6D00136D9E700002DE9FF470F7E0C9DEB
:1026B000782F914680460C469A4601F1430207D88E
:1026C000622F0AD8002F00F0D880582F00F0A38086
:1026D00004F1420584F842703AE0A7F16303152B38
:1026E000F6D801A151F823F041270008552700082A
:1026F000D1260008D1260008D1260008D1260008DE
:1027000055270008D1260008D1260008D126000848
:10271000D126000861280008852700084328000802
:10272000D1260008D126000883280008D1260008F9
:1027300085270008D1260008D12600084B2800086C
:102740002B681A1D1B682A6004F1420584F8423088
:102750000123A3E020682968060601F104030AD5D5
:102760000E682B60002E03DA2D23764284F8433066
:102770005E480A2319E00E682B6010F0400F18BF66
:1027800036B2EFE72B682068191D2960010601D5D4
:102790001E6802E04606FBD51E8854486F2F0CBF0A
:1027A00008230A23002184F843106568A560002DE2
:1027B000A2BF216821F0040121600EB9002D4DD087
:1027C0001546B6FBF3F103FB1167C75D05F8017D04
:1027D0003746BB420E46F4D9082B0BD12368DE07DF
:1027E00008D5236961689942DEBF302305F8013CB2
:1027F00005F1FF35521B2261CDF800A04B4603AA1C
:1028000021464046FFF7E2FE01304CD14FF0FF3049
:1028100004B0BDE8F087354881F845702968236821
:1028200051F8046B29601D0614D5DF0744BF43F03F
:10283000200323601EB9236823F0200323601023A4
:10284000B0E7236843F0200323607823284884F806
:102850004530E3E7590648BFB6B2E6E71546BBE7A1
:102860002B6826686169181D286035061B6801D52C
:10287000196002E07006FBD519800023236115461C
:10288000BAE72B681A1D2A601D6862680021284675
:10289000FDF7AEFC08B1401B606063682361002354
:1028A00084F84330A8E723692A4649464046D04782
:1028B0000130ABD023689B0713D4E068039B984298
:1028C000B8BF1846A4E70123324649464046D047E0
:1028D00001309BD00135E36803995B1AAB42F2DC0F
:1028E000EBE7002504F11906F5E700BF1D2C0008F1
:1028F0002E2C0008704770470A44914200F1FF33C4
:1029000000D1704710B511F8014B03F8014F914207
:10291000F9D110BD884210B501EB020402D98442FE
:10292000234607D8431EA14208D011F8012B03F813
:10293000012FF8E7024401468A4200D110BD13F886
:10294000014D02F8014DF7E72DE9F04180461446AC
:102950000E4621B9BDE8F0411146FFF7EBBB2AB99D
:10296000FFF77CFB25462846BDE8F08100F01BF808
:102970008442074602D8B4EB500F12D82146404695
:10298000FFF7D8FB05460028EDD0BC422246314671
:1029900028BF3A46FFF7B0FF31464046FFF75EFBDF
:1029A000E1E73546DFE751F8043C181F002BBCBFB8
:1029B0000B58C01870470000044A05491368002BE3
:1029C00008BF0B461844106018467047C403002027
:1029D000C8030020F8B500BFF8BC08BC9E4670478D
:0C29E000F8B500BFF8BC08BC9E4670476C
:1029EC001B5B324A1B5B4800487963202D3E00007C
:1029FC001B5B376D54614B65546F5269205368658E
:102A0C006C6C207665722E20302E302E3400000037
:102A1C001B5B306D0000000048656C6C6F2C776F91
:102A2C00726C64320000000048656C6C6F2C776F20
:102A3C00726C64330000000041726720636F756E26
:102A4C00743A256400000000466F756E6420417670
:102A5C00616C6961626C6520636F6D6D616E643A67
:102A6C000D0A436F6D6D616E643A2020202020208A
:102A7C002020202020202020202064657363726990
:102A8C007074696F6E3A000025642E202573000067
:102A9C0020000000E994AEE580BCE6A380E6B58B8F
:102AAC003A202000E98080E587BA2E2E2E00000007
:102ABC007F00000025640000636D646C6973740012
:102ACC006C69737420746865206176616C696162ED
:102ADC006C6520636F6D6D616E6420616E6420693E
:102AEC007473206465736372697074696F6E00002F
:102AFC0076657273696F6E00646973706C617920AE
:102B0C00746865207368656C6C2076657273696F88
:102B1C006E20696E666F726D6174696F6E00000075
:102B2C0068656C6C6F3200007072696E742022489C
:102B3C00656C6C6F2C776F726C6432220000000035
:102B4C0068656C6C6F3300007072696E742022487B
:102B5C00656C6C6F2C776F726C6433220000000014
:102B6C006B65797363616E00446973706C61792075
:102B7C006B65792076616C75652E000061726774E7
:102B8C006573740074657374206172672064657476
:102B9C0061696C732E000000636C6561720000004B
:102BAC00436C656172207468652073637265656E31
:102BBC00000000000D0A436F6D6D616E64204E6F56
:102BCC007420466F756E642100000000202D0000FB
:102BDC000D0A487963202D3E00000000070000001C
:102BEC000D0A25730000000000000000000000002A
:102BFC000102030406070809000000000102030497
:102C0C00232D302B2000686C4C00656667454647C9
:102C1C00003031323334353637383941424344454C
:102C2C0046003031323334353637383961626364BB
:042C3C0065660000C9
:082C400080D6FF7F01000000B7
:042C4800C5010008BA
:042C4C00A1010008DA
:102C5000C42A0008CC2A0008C1080008500000203F
:102C6000A42B0008AC2B0008290800080000000075
:102C70002C2B0008342B00085108000830000020DD
:102C80004C2B0008542B000861080008400000206D
:102C90006C2B0008742B0008A509000860000020B8
:102CA000FC2A0008042B0008390800082000002036
:102CB000882B0008902B00087108000810000020E5
:102CC00001000000100000000024F400800000203B
:102CD00000000000000000000000000000000000F4
:102CE00000000000000000000000000000000000E4
:102CF00000000000000000000000000000000000D4
:102D000000000000000000000000000000000000C3
:102D100000000000000000000000000000000000B3
:102D200000000000000000000000000000000000A3
:0400000508001F715F
:00000001FF
